{
  "_format": "hh-sol-artifact-1",
  "contractName": "Marionette",
  "sourceName": "contracts/Marionette.sol",
  "abi": [
    {
      "inputs": [
        {
          "internalType": "address",
          "name": "unauthorizedSender",
          "type": "address"
        }
      ],
      "name": "Unauthorized",
      "type": "error"
    },
    {
      "anonymous": false,
      "inputs": [
        {
          "indexed": false,
          "internalType": "address",
          "name": "sender",
          "type": "address"
        },
        {
          "indexed": false,
          "internalType": "uint256",
          "name": "amount",
          "type": "uint256"
        }
      ],
      "name": "EtherReceived",
      "type": "event"
    },
    {
      "anonymous": false,
      "inputs": [
        {
          "indexed": false,
          "internalType": "address",
          "name": "receiver",
          "type": "address"
        },
        {
          "indexed": false,
          "internalType": "uint256",
          "name": "amount",
          "type": "uint256"
        }
      ],
      "name": "EtherSent",
      "type": "event"
    },
    {
      "anonymous": false,
      "inputs": [
        {
          "indexed": false,
          "internalType": "bytes",
          "name": "output",
          "type": "bytes"
        }
      ],
      "name": "FunctionCallResult",
      "type": "event"
    },
    {
      "anonymous": false,
      "inputs": [
        {
          "indexed": false,
          "internalType": "uint8",
          "name": "version",
          "type": "uint8"
        }
      ],
      "name": "Initialized",
      "type": "event"
    },
    {
      "anonymous": false,
      "inputs": [
        {
          "indexed": true,
          "internalType": "bytes32",
          "name": "role",
          "type": "bytes32"
        },
        {
          "indexed": true,
          "internalType": "bytes32",
          "name": "previousAdminRole",
          "type": "bytes32"
        },
        {
          "indexed": true,
          "internalType": "bytes32",
          "name": "newAdminRole",
          "type": "bytes32"
        }
      ],
      "name": "RoleAdminChanged",
      "type": "event"
    },
    {
      "anonymous": false,
      "inputs": [
        {
          "indexed": true,
          "internalType": "bytes32",
          "name": "role",
          "type": "bytes32"
        },
        {
          "indexed": true,
          "internalType": "address",
          "name": "account",
          "type": "address"
        },
        {
          "indexed": true,
          "internalType": "address",
          "name": "sender",
          "type": "address"
        }
      ],
      "name": "RoleGranted",
      "type": "event"
    },
    {
      "anonymous": false,
      "inputs": [
        {
          "indexed": true,
          "internalType": "bytes32",
          "name": "role",
          "type": "bytes32"
        },
        {
          "indexed": true,
          "internalType": "address",
          "name": "account",
          "type": "address"
        },
        {
          "indexed": true,
          "internalType": "address",
          "name": "sender",
          "type": "address"
        }
      ],
      "name": "RoleRevoked",
      "type": "event"
    },
    {
      "anonymous": false,
      "inputs": [
        {
          "indexed": false,
          "internalType": "string",
          "name": "oldVersion",
          "type": "string"
        },
        {
          "indexed": false,
          "internalType": "string",
          "name": "newVersion",
          "type": "string"
        }
      ],
      "name": "VersionUpdated",
      "type": "event"
    },
    {
      "inputs": [],
      "name": "ACCESS_VIOLATION",
      "outputs": [
        {
          "internalType": "string",
          "name": "",
          "type": "string"
        }
      ],
      "stateMutability": "view",
      "type": "function"
    },
    {
      "inputs": [],
      "name": "DEFAULT_ADMIN_ROLE",
      "outputs": [
        {
          "internalType": "bytes32",
          "name": "",
          "type": "bytes32"
        }
      ],
      "stateMutability": "view",
      "type": "function"
    },
    {
      "inputs": [],
      "name": "IMA_ROLE",
      "outputs": [
        {
          "internalType": "bytes32",
          "name": "",
          "type": "bytes32"
        }
      ],
      "stateMutability": "view",
      "type": "function"
    },
    {
      "inputs": [],
      "name": "PUPPETEER_ROLE",
      "outputs": [
        {
          "internalType": "bytes32",
          "name": "",
          "type": "bytes32"
        }
      ],
      "stateMutability": "view",
      "type": "function"
    },
    {
      "inputs": [
        {
          "internalType": "address",
          "name": "receiver",
          "type": "address"
        },
        {
          "internalType": "uint256",
          "name": "value",
          "type": "uint256"
        },
        {
          "internalType": "bytes",
          "name": "data",
          "type": "bytes"
        }
      ],
      "name": "encodeFunctionCall",
      "outputs": [
        {
          "internalType": "bytes",
          "name": "",
          "type": "bytes"
        }
      ],
      "stateMutability": "pure",
      "type": "function"
    },
    {
      "inputs": [
        {
          "internalType": "address payable",
          "name": "target",
          "type": "address"
        },
        {
          "internalType": "uint256",
          "name": "value",
          "type": "uint256"
        },
        {
          "internalType": "bytes",
          "name": "data",
          "type": "bytes"
        }
      ],
      "name": "execute",
      "outputs": [
        {
          "internalType": "bytes",
          "name": "",
          "type": "bytes"
        }
      ],
      "stateMutability": "payable",
      "type": "function"
    },
    {
      "inputs": [
        {
          "internalType": "bytes32",
          "name": "role",
          "type": "bytes32"
        }
      ],
      "name": "getRoleAdmin",
      "outputs": [
        {
          "internalType": "bytes32",
          "name": "",
          "type": "bytes32"
        }
      ],
      "stateMutability": "view",
      "type": "function"
    },
    {
      "inputs": [
        {
          "internalType": "bytes32",
          "name": "role",
          "type": "bytes32"
        },
        {
          "internalType": "uint256",
          "name": "index",
          "type": "uint256"
        }
      ],
      "name": "getRoleMember",
      "outputs": [
        {
          "internalType": "address",
          "name": "",
          "type": "address"
        }
      ],
      "stateMutability": "view",
      "type": "function"
    },
    {
      "inputs": [
        {
          "internalType": "bytes32",
          "name": "role",
          "type": "bytes32"
        }
      ],
      "name": "getRoleMemberCount",
      "outputs": [
        {
          "internalType": "uint256",
          "name": "",
          "type": "uint256"
        }
      ],
      "stateMutability": "view",
      "type": "function"
    },
    {
      "inputs": [
        {
          "internalType": "bytes32",
          "name": "role",
          "type": "bytes32"
        },
        {
          "internalType": "address",
          "name": "account",
          "type": "address"
        }
      ],
      "name": "grantRole",
      "outputs": [],
      "stateMutability": "nonpayable",
      "type": "function"
    },
    {
      "inputs": [
        {
          "internalType": "bytes32",
          "name": "role",
          "type": "bytes32"
        },
        {
          "internalType": "address",
          "name": "account",
          "type": "address"
        }
      ],
      "name": "hasRole",
      "outputs": [
        {
          "internalType": "bool",
          "name": "",
          "type": "bool"
        }
      ],
      "stateMutability": "view",
      "type": "function"
    },
    {
      "inputs": [
        {
          "internalType": "address",
          "name": "owner",
          "type": "address"
        },
        {
          "internalType": "address",
          "name": "ima",
          "type": "address"
        }
      ],
      "name": "initialize",
      "outputs": [],
      "stateMutability": "nonpayable",
      "type": "function"
    },
    {
      "inputs": [
        {
          "internalType": "bytes32",
          "name": "",
          "type": "bytes32"
        },
        {
          "internalType": "address",
          "name": "sender",
          "type": "address"
        },
        {
          "internalType": "bytes",
          "name": "data",
          "type": "bytes"
        }
      ],
      "name": "postMessage",
      "outputs": [],
      "stateMutability": "nonpayable",
      "type": "function"
    },
    {
      "inputs": [
        {
          "internalType": "bytes32",
          "name": "role",
          "type": "bytes32"
        },
        {
          "internalType": "address",
          "name": "account",
          "type": "address"
        }
      ],
      "name": "renounceRole",
      "outputs": [],
      "stateMutability": "nonpayable",
      "type": "function"
    },
    {
      "inputs": [
        {
          "internalType": "bytes32",
          "name": "role",
          "type": "bytes32"
        },
        {
          "internalType": "address",
          "name": "account",
          "type": "address"
        }
      ],
      "name": "revokeRole",
      "outputs": [],
      "stateMutability": "nonpayable",
      "type": "function"
    },
    {
      "inputs": [
        {
          "internalType": "address payable",
          "name": "target",
          "type": "address"
        },
        {
          "internalType": "uint256",
          "name": "value",
          "type": "uint256"
        }
      ],
      "name": "sendSFuel",
      "outputs": [],
      "stateMutability": "payable",
      "type": "function"
    },
    {
      "inputs": [
        {
          "internalType": "string",
          "name": "newVersion",
          "type": "string"
        }
      ],
      "name": "setVersion",
      "outputs": [],
      "stateMutability": "nonpayable",
      "type": "function"
    },
    {
      "inputs": [
        {
          "internalType": "bytes4",
          "name": "interfaceId",
          "type": "bytes4"
        }
      ],
      "name": "supportsInterface",
      "outputs": [
        {
          "internalType": "bool",
          "name": "",
          "type": "bool"
        }
      ],
      "stateMutability": "view",
      "type": "function"
    },
    {
      "inputs": [],
      "name": "version",
      "outputs": [
        {
          "internalType": "string",
          "name": "",
          "type": "string"
        }
      ],
      "stateMutability": "view",
      "type": "function"
    },
    {
      "stateMutability": "payable",
      "type": "receive"
    }
  ],
  "bytecode": "0x608060405234801561001057600080fd5b50611b1c806100206000396000f3fe6080604052600436106101185760003560e01c8063884cee5a116100a0578063b3c9af0611610064578063b3c9af061461037e578063b61d27f614610391578063ca15c873146103a4578063d547741f146103c4578063f81299b9146103e457600080fd5b8063884cee5a146102b55780639010d07c146102d557806391d148541461030d5780639bba6b781461032d578063a217fddf1461036957600080fd5b806334216d62116100e757806334216d621461021e57806336568abe14610240578063485cc9551461026057806354fd4d5014610280578063788bc78c1461029557600080fd5b806301ffc9a71461015c5780631e69959114610191578063248a9ca3146101be5780632f2ff15d146101fc57600080fd5b3661015757604080513381523460208201527f1e57e3bb474320be3d2c77138f75b7c3941292d647f5f9634e33a8e94e0e069b910160405180910390a1005b600080fd5b34801561016857600080fd5b5061017c61017736600461149a565b610418565b60405190151581526020015b60405180910390f35b34801561019d57600080fd5b506101b16101ac366004611522565b610443565b60405161018891906115da565b3480156101ca57600080fd5b506101ee6101d93660046115ed565b60009081526065602052604090206001015490565b604051908152602001610188565b34801561020857600080fd5b5061021c610217366004611606565b610476565b005b34801561022a57600080fd5b506101ee600080516020611ac783398151915281565b34801561024c57600080fd5b5061021c61025b366004611606565b6104a0565b34801561026c57600080fd5b5061021c61027b366004611636565b610523565b34801561028c57600080fd5b506101b1610691565b3480156102a157600080fd5b5061021c6102b0366004611664565b61071f565b3480156102c157600080fd5b5061021c6102d03660046116a6565b610791565b3480156102e157600080fd5b506102f56102f03660046116ea565b6108c3565b6040516001600160a01b039091168152602001610188565b34801561031957600080fd5b5061017c610328366004611606565b6108e2565b34801561033957600080fd5b506101b16040518060400160405280601081526020016f20b1b1b2b9b9903b34b7b630ba34b7b760811b81525081565b34801561037557600080fd5b506101ee600081565b61021c61038c36600461170c565b61090d565b6101b161039f366004611522565b610992565b3480156103b057600080fd5b506101ee6103bf3660046115ed565b610a3e565b3480156103d057600080fd5b5061021c6103df366004611606565b610a55565b3480156103f057600080fd5b506101ee7f18f7915ceb1a15dd0c3170ef6d30ba89e0bcb07f4fb55858579385663709107e81565b60006001600160e01b03198216635a05180f60e01b148061043d575061043d82610a7a565b92915050565b60608484848460405160200161045c9493929190611761565b60405160208183030381529060405290505b949350505050565b60008281526065602052604090206001015461049181610aaf565b61049b8383610abc565b505050565b6001600160a01b03811633146105155760405162461bcd60e51b815260206004820152602f60248201527f416363657373436f6e74726f6c3a2063616e206f6e6c792072656e6f756e636560448201526e103937b632b9903337b91039b2b63360891b60648201526084015b60405180910390fd5b61051f8282610ade565b5050565b600054610100900460ff16158080156105435750600054600160ff909116105b8061055d5750303b15801561055d575060005460ff166001145b6105c05760405162461bcd60e51b815260206004820152602e60248201527f496e697469616c697a61626c653a20636f6e747261637420697320616c72656160448201526d191e481a5b9a5d1a585b1a5e995960921b606482015260840161050c565b6000805460ff1916600117905580156105e3576000805461ff0019166101001790555b6105eb610b00565b6105f6600030610b6d565b61060e600080516020611ac783398151915284610b6d565b6001600160a01b03821615610647576106477f18f7915ceb1a15dd0c3170ef6d30ba89e0bcb07f4fb55858579385663709107e83610b6d565b801561049b576000805461ff0019169055604051600181527f7f26b83ff96e1f2b6a682f133852f6798a09c465da95921460cefb38474024989060200160405180910390a1505050565b60c9805461069e90611793565b80601f01602080910402602001604051908101604052809291908181526020018280546106ca90611793565b80156107175780601f106106ec57610100808354040283529160200191610717565b820191906000526020600020905b8154815290600101906020018083116106fa57829003601f168201915b505050505081565b61072a6000336108e2565b6107495760405163472511eb60e11b815233600482015260240161050c565b7f22efc5f993dce37856b77dd72d7d7661032380c9728c4133f3c071c591bc6ca760c9838360405161077d939291906117ce565b60405180910390a161049b60c98383611401565b6107bb7f18f7915ceb1a15dd0c3170ef6d30ba89e0bcb07f4fb55858579385663709107e336108e2565b6107fb5760405162461bcd60e51b815260206004820152601160248201527053656e646572206973206e6f7420494d4160781b604482015260640161050c565b610813600080516020611ac7833981519152846108e2565b6040518060400160405280601081526020016f20b1b1b2b9b9903b34b7b630ba34b7b760811b8152509061085a5760405162461bcd60e51b815260040161050c91906115da565b5060006108678383610b77565b90506000610882826000015183602001518460400151610bba565b90507f96dfc08ca2be84df03b6ba50ac467a2e3cfa446eebcc623851fbee1ba0301784816040516108b391906115da565b60405180910390a1505050505050565b60008281526097602052604081206108db9083610cac565b9392505050565b60009182526065602090815260408084206001600160a01b0393909316845291905290205460ff1690565b610925600080516020611ac7833981519152336108e2565b6040518060400160405280601081526020016f20b1b1b2b9b9903b34b7b630ba34b7b760811b8152509061096c5760405162461bcd60e51b815260040161050c91906115da565b5061049b828260405180604001604052806002815260200161060f60f31b815250610bba565b60606109ac600080516020611ac7833981519152336108e2565b6040518060400160405280601081526020016f20b1b1b2b9b9903b34b7b630ba34b7b760811b815250906109f35760405162461bcd60e51b815260040161050c91906115da565b50610a35858585858080601f016020809104026020016040519081016040528093929190818152602001838380828437600092019190915250610bba92505050565b95945050505050565b600081815260976020526040812061043d90610cb8565b600082815260656020526040902060010154610a7081610aaf565b61049b8383610ade565b60006001600160e01b03198216637965db0b60e01b148061043d57506301ffc9a760e01b6001600160e01b031983161461043d565b610ab98133610cc2565b50565b610ac68282610d1b565b600082815260976020526040902061049b9082610da1565b610ae88282610db6565b600082815260976020526040902061049b9082610e1d565b600054610100900460ff16610b6b5760405162461bcd60e51b815260206004820152602b60248201527f496e697469616c697a61626c653a20636f6e7472616374206973206e6f74206960448201526a6e697469616c697a696e6760a81b606482015260840161050c565b565b61051f8282610abc565b60408051606080820183526000808352602083015291810191909152610b9f82840184611898565b604084015260208301526001600160a01b0316815292915050565b60603415610bfb57604080513381523460208201527f1e57e3bb474320be3d2c77138f75b7c3941292d647f5f9634e33a8e94e0e069b910160405180910390a15b8215610c4457604080516001600160a01b0386168152602081018590527f6109e2559dfa766aaec7118351d48a523f0a4157f49c8d68749c8ac41318ad12910160405180910390a15b6001600160a01b0384163b15610c78576004825110610c7857610c716001600160a01b0385168385610e32565b90506108db565b610c8b6001600160a01b03851684610e58565b50604080518082019091526002815261060f60f31b60208201529392505050565b60006108db8383610f71565b600061043d825490565b610ccc82826108e2565b61051f57610cd981610f9b565b610ce4836020610fad565b604051602001610cf5929190611965565b60408051601f198184030181529082905262461bcd60e51b825261050c916004016115da565b610d2582826108e2565b61051f5760008281526065602090815260408083206001600160a01b03851684529091529020805460ff19166001179055610d5d3390565b6001600160a01b0316816001600160a01b0316837f2f8788117e7eff1d82e926ec794901d17c78024a50270940304540a733656f0d60405160405180910390a45050565b60006108db836001600160a01b038416611149565b610dc082826108e2565b1561051f5760008281526065602090815260408083206001600160a01b0385168085529252808320805460ff1916905551339285917ff6391f5c32d9c69d2a47ea670b442974b53935d1edc7fd64eb21e047a839171b9190a45050565b60006108db836001600160a01b038416611198565b606061046e848484604051806060016040528060298152602001611a9e6029913961128b565b80471015610ea85760405162461bcd60e51b815260206004820152601d60248201527f416464726573733a20696e73756666696369656e742062616c616e6365000000604482015260640161050c565b6000826001600160a01b03168260405160006040518083038185875af1925050503d8060008114610ef5576040519150601f19603f3d011682016040523d82523d6000602084013e610efa565b606091505b505090508061049b5760405162461bcd60e51b815260206004820152603a60248201527f416464726573733a20756e61626c6520746f2073656e642076616c75652c207260448201527f6563697069656e74206d61792068617665207265766572746564000000000000606482015260840161050c565b6000826000018281548110610f8857610f886119da565b9060005260206000200154905092915050565b606061043d6001600160a01b03831660145b60606000610fbc836002611a06565b610fc7906002611a25565b67ffffffffffffffff811115610fdf57610fdf611882565b6040519080825280601f01601f191660200182016040528015611009576020820181803683370190505b509050600360fc1b81600081518110611024576110246119da565b60200101906001600160f81b031916908160001a905350600f60fb1b81600181518110611053576110536119da565b60200101906001600160f81b031916908160001a9053506000611077846002611a06565b611082906001611a25565b90505b60018111156110fa576f181899199a1a9b1b9c1cb0b131b232b360811b85600f16601081106110b6576110b66119da565b1a60f81b8282815181106110cc576110cc6119da565b60200101906001600160f81b031916908160001a90535060049490941c936110f381611a3d565b9050611085565b5083156108db5760405162461bcd60e51b815260206004820181905260248201527f537472696e67733a20686578206c656e67746820696e73756666696369656e74604482015260640161050c565b60008181526001830160205260408120546111905750815460018181018455600084815260208082209093018490558454848252828601909352604090209190915561043d565b50600061043d565b600081815260018301602052604081205480156112815760006111bc600183611a54565b85549091506000906111d090600190611a54565b90508181146112355760008660000182815481106111f0576111f06119da565b9060005260206000200154905080876000018481548110611213576112136119da565b6000918252602080832090910192909255918252600188019052604090208390555b855486908061124657611246611a6b565b60019003818190600052602060002001600090559055856001016000868152602001908152602001600020600090556001935050505061043d565b600091505061043d565b6060824710156112ec5760405162461bcd60e51b815260206004820152602660248201527f416464726573733a20696e73756666696369656e742062616c616e636520666f6044820152651c8818d85b1b60d21b606482015260840161050c565b600080866001600160a01b031685876040516113089190611a81565b60006040518083038185875af1925050503d8060008114611345576040519150601f19603f3d011682016040523d82523d6000602084013e61134a565b606091505b509150915061135b87838387611366565b979650505050505050565b606083156113d25782516113cb576001600160a01b0385163b6113cb5760405162461bcd60e51b815260206004820152601d60248201527f416464726573733a2063616c6c20746f206e6f6e2d636f6e7472616374000000604482015260640161050c565b508161046e565b61046e83838151156113e75781518083602001fd5b8060405162461bcd60e51b815260040161050c91906115da565b82805461140d90611793565b90600052602060002090601f01602090048101928261142f5760008555611475565b82601f106114485782800160ff19823516178555611475565b82800160010185558215611475579182015b8281111561147557823582559160200191906001019061145a565b50611481929150611485565b5090565b5b808211156114815760008155600101611486565b6000602082840312156114ac57600080fd5b81356001600160e01b0319811681146108db57600080fd5b6001600160a01b0381168114610ab957600080fd5b60008083601f8401126114eb57600080fd5b50813567ffffffffffffffff81111561150357600080fd5b60208301915083602082850101111561151b57600080fd5b9250929050565b6000806000806060858703121561153857600080fd5b8435611543816114c4565b935060208501359250604085013567ffffffffffffffff81111561156657600080fd5b611572878288016114d9565b95989497509550505050565b60005b83811015611599578181015183820152602001611581565b838111156115a8576000848401525b50505050565b600081518084526115c681602086016020860161157e565b601f01601f19169290920160200192915050565b6020815260006108db60208301846115ae565b6000602082840312156115ff57600080fd5b5035919050565b6000806040838503121561161957600080fd5b82359150602083013561162b816114c4565b809150509250929050565b6000806040838503121561164957600080fd5b8235611654816114c4565b9150602083013561162b816114c4565b6000806020838503121561167757600080fd5b823567ffffffffffffffff81111561168e57600080fd5b61169a858286016114d9565b90969095509350505050565b600080600080606085870312156116bc57600080fd5b8435935060208501356116ce816114c4565b9250604085013567ffffffffffffffff81111561156657600080fd5b600080604083850312156116fd57600080fd5b50508035926020909101359150565b6000806040838503121561171f57600080fd5b823561172a816114c4565b946020939093013593505050565b81835281816020850137506000828201602090810191909152601f909101601f19169091010190565b60018060a01b0385168152836020820152606060408201526000611789606083018486611738565b9695505050505050565b600181811c908216806117a757607f821691505b602082108114156117c857634e487b7160e01b600052602260045260246000fd5b50919050565b60408152600080855481600182811c9150808316806117ee57607f831692505b602080841082141561180e57634e487b7160e01b86526022600452602486fd5b604088018490526060880182801561182d576001811461183e57611869565b60ff19871682528282019750611869565b60008d81526020902060005b878110156118635781548482015290860190840161184a565b83019850505b5050878603818901525050505050611789818587611738565b634e487b7160e01b600052604160045260246000fd5b6000806000606084860312156118ad57600080fd5b83356118b8816114c4565b925060208401359150604084013567ffffffffffffffff808211156118dc57600080fd5b818601915086601f8301126118f057600080fd5b81358181111561190257611902611882565b604051601f8201601f19908116603f0116810190838211818310171561192a5761192a611882565b8160405282815289602084870101111561194357600080fd5b8260208601602083013760006020848301015280955050505050509250925092565b7f416363657373436f6e74726f6c3a206163636f756e742000000000000000000081526000835161199d81601785016020880161157e565b7001034b99036b4b9b9b4b733903937b6329607d1b60179184019182015283516119ce81602884016020880161157e565b01602801949350505050565b634e487b7160e01b600052603260045260246000fd5b634e487b7160e01b600052601160045260246000fd5b6000816000190483118215151615611a2057611a206119f0565b500290565b60008219821115611a3857611a386119f0565b500190565b600081611a4c57611a4c6119f0565b506000190190565b600082821015611a6657611a666119f0565b500390565b634e487b7160e01b600052603160045260246000fd5b60008251611a9381846020870161157e565b919091019291505056fe416464726573733a206c6f772d6c6576656c2063616c6c20776974682076616c7565206661696c6564dbe8b307f60c9ed0e3764e9100b17f1d4c5fd58ba7889d208d166f481302d4cfa2646970667358221220c4209ca5cd2b2b459f4366712e5a75a2f06991d5fa1c18928d1b80fbcf302a8a64736f6c634300080b0033",
  "linkReferences": {},
  "deployedLinkReferences": {}
}